{
  "abi": [
    {
      "type": "constructor",
      "inputs": [
        {
          "name": "_fundName",
          "type": "string",
          "internalType": "string"
        },
        {
          "name": "_contributionAmount",
          "type": "uint256",
          "internalType": "uint256"
        },
        {
          "name": "_totalMembers",
          "type": "uint256",
          "internalType": "uint256"
        },
        {
          "name": "_paymentToken",
          "type": "address",
          "internalType": "address"
        }
      ],
      "stateMutability": "nonpayable"
    },
    {
      "type": "receive",
      "stateMutability": "payable"
    },
    {
      "type": "function",
      "name": "BIDDING_DURATION",
      "inputs": [],
      "outputs": [
        {
          "name": "",
          "type": "uint256",
          "internalType": "uint256"
        }
      ],
      "stateMutability": "view"
    },
    {
      "type": "function",
      "name": "CYCLE_DURATION",
      "inputs": [],
      "outputs": [
        {
          "name": "",
          "type": "uint256",
          "internalType": "uint256"
        }
      ],
      "stateMutability": "view"
    },
    {
      "type": "function",
      "name": "MAX_BID_PERCENTAGE",
      "inputs": [],
      "outputs": [
        {
          "name": "",
          "type": "uint256",
          "internalType": "uint256"
        }
      ],
      "stateMutability": "view"
    },
    {
      "type": "function",
      "name": "MAX_MEMBERS",
      "inputs": [],
      "outputs": [
        {
          "name": "",
          "type": "uint256",
          "internalType": "uint256"
        }
      ],
      "stateMutability": "view"
    },
    {
      "type": "function",
      "name": "MIN_MEMBERS",
      "inputs": [],
      "outputs": [
        {
          "name": "",
          "type": "uint256",
          "internalType": "uint256"
        }
      ],
      "stateMutability": "view"
    },
    {
      "type": "function",
      "name": "checkUpkeep",
      "inputs": [
        {
          "name": "",
          "type": "bytes",
          "internalType": "bytes"
        }
      ],
      "outputs": [
        {
          "name": "upkeepNeeded",
          "type": "bool",
          "internalType": "bool"
        },
        {
          "name": "performData",
          "type": "bytes",
          "internalType": "bytes"
        }
      ],
      "stateMutability": "view"
    },
    {
      "type": "function",
      "name": "contribute",
      "inputs": [],
      "outputs": [],
      "stateMutability": "payable"
    },
    {
      "type": "function",
      "name": "contributionAmount",
      "inputs": [],
      "outputs": [
        {
          "name": "",
          "type": "uint256",
          "internalType": "uint256"
        }
      ],
      "stateMutability": "view"
    },
    {
      "type": "function",
      "name": "currentCycle",
      "inputs": [],
      "outputs": [
        {
          "name": "cycleNumber",
          "type": "uint256",
          "internalType": "uint256"
        },
        {
          "name": "totalPool",
          "type": "uint256",
          "internalType": "uint256"
        },
        {
          "name": "winner",
          "type": "address",
          "internalType": "address"
        },
        {
          "name": "winnerPayout",
          "type": "uint256",
          "internalType": "uint256"
        },
        {
          "name": "isActive",
          "type": "bool",
          "internalType": "bool"
        },
        {
          "name": "contributionDeadline",
          "type": "uint256",
          "internalType": "uint256"
        },
        {
          "name": "biddingDeadline",
          "type": "uint256",
          "internalType": "uint256"
        },
        {
          "name": "startTime",
          "type": "uint256",
          "internalType": "uint256"
        },
        {
          "name": "fundsDistributed",
          "type": "bool",
          "internalType": "bool"
        }
      ],
      "stateMutability": "view"
    },
    {
      "type": "function",
      "name": "distributeFunds",
      "inputs": [],
      "outputs": [],
      "stateMutability": "nonpayable"
    },
    {
      "type": "function",
      "name": "fundName",
      "inputs": [],
      "outputs": [
        {
          "name": "",
          "type": "string",
          "internalType": "string"
        }
      ],
      "stateMutability": "view"
    },
    {
      "type": "function",
      "name": "getCurrentCycle",
      "inputs": [],
      "outputs": [
        {
          "name": "",
          "type": "tuple",
          "internalType": "struct IChitFund.Cycle",
          "components": [
            {
              "name": "cycleNumber",
              "type": "uint256",
              "internalType": "uint256"
            },
            {
              "name": "totalPool",
              "type": "uint256",
              "internalType": "uint256"
            },
            {
              "name": "winner",
              "type": "address",
              "internalType": "address"
            },
            {
              "name": "winnerPayout",
              "type": "uint256",
              "internalType": "uint256"
            },
            {
              "name": "isActive",
              "type": "bool",
              "internalType": "bool"
            },
            {
              "name": "contributionDeadline",
              "type": "uint256",
              "internalType": "uint256"
            },
            {
              "name": "biddingDeadline",
              "type": "uint256",
              "internalType": "uint256"
            },
            {
              "name": "startTime",
              "type": "uint256",
              "internalType": "uint256"
            },
            {
              "name": "fundsDistributed",
              "type": "bool",
              "internalType": "bool"
            }
          ]
        }
      ],
      "stateMutability": "view"
    },
    {
      "type": "function",
      "name": "getFundStats",
      "inputs": [],
      "outputs": [
        {
          "name": "_currentMembers",
          "type": "uint256",
          "internalType": "uint256"
        },
        {
          "name": "_completedCycles",
          "type": "uint256",
          "internalType": "uint256"
        }
      ],
      "stateMutability": "view"
    },
    {
      "type": "function",
      "name": "getMemberStatus",
      "inputs": [
        {
          "name": "_member",
          "type": "address",
          "internalType": "address"
        }
      ],
      "outputs": [
        {
          "name": "hasContributed",
          "type": "bool",
          "internalType": "bool"
        },
        {
          "name": "hasBid",
          "type": "bool",
          "internalType": "bool"
        },
        {
          "name": "bidAmount",
          "type": "uint256",
          "internalType": "uint256"
        }
      ],
      "stateMutability": "view"
    },
    {
      "type": "function",
      "name": "getMembers",
      "inputs": [],
      "outputs": [
        {
          "name": "",
          "type": "tuple[]",
          "internalType": "struct IChitFund.Member[]",
          "components": [
            {
              "name": "wallet",
              "type": "address",
              "internalType": "address"
            },
            {
              "name": "hasJoined",
              "type": "bool",
              "internalType": "bool"
            },
            {
              "name": "hasContributed",
              "type": "bool",
              "internalType": "bool"
            },
            {
              "name": "hasBid",
              "type": "bool",
              "internalType": "bool"
            },
            {
              "name": "bidAmount",
              "type": "uint256",
              "internalType": "uint256"
            },
            {
              "name": "isWinner",
              "type": "bool",
              "internalType": "bool"
            },
            {
              "name": "canParticipate",
              "type": "bool",
              "internalType": "bool"
            },
            {
              "name": "joinTime",
              "type": "uint256",
              "internalType": "uint256"
            },
            {
              "name": "contributionCount",
              "type": "uint256",
              "internalType": "uint256"
            }
          ]
        }
      ],
      "stateMutability": "view"
    },
    {
      "type": "function",
      "name": "getPoolStatus",
      "inputs": [],
      "outputs": [
        {
          "name": "totalPool",
          "type": "uint256",
          "internalType": "uint256"
        },
        {
          "name": "cycleNumber",
          "type": "uint256",
          "internalType": "uint256"
        },
        {
          "name": "isActive",
          "type": "bool",
          "internalType": "bool"
        }
      ],
      "stateMutability": "view"
    },
    {
      "type": "function",
      "name": "isChitFundComplete",
      "inputs": [],
      "outputs": [
        {
          "name": "",
          "type": "bool",
          "internalType": "bool"
        }
      ],
      "stateMutability": "view"
    },
    {
      "type": "function",
      "name": "isChitFundStarted",
      "inputs": [],
      "outputs": [
        {
          "name": "",
          "type": "bool",
          "internalType": "bool"
        }
      ],
      "stateMutability": "view"
    },
    {
      "type": "function",
      "name": "isEthBased",
      "inputs": [],
      "outputs": [
        {
          "name": "",
          "type": "bool",
          "internalType": "bool"
        }
      ],
      "stateMutability": "view"
    },
    {
      "type": "function",
      "name": "isMember",
      "inputs": [
        {
          "name": "_member",
          "type": "address",
          "internalType": "address"
        }
      ],
      "outputs": [
        {
          "name": "",
          "type": "bool",
          "internalType": "bool"
        }
      ],
      "stateMutability": "view"
    },
    {
      "type": "function",
      "name": "isMemberAddress",
      "inputs": [
        {
          "name": "",
          "type": "address",
          "internalType": "address"
        }
      ],
      "outputs": [
        {
          "name": "",
          "type": "bool",
          "internalType": "bool"
        }
      ],
      "stateMutability": "view"
    },
    {
      "type": "function",
      "name": "joinFund",
      "inputs": [],
      "outputs": [],
      "stateMutability": "nonpayable"
    },
    {
      "type": "function",
      "name": "joinFundFor",
      "inputs": [
        {
          "name": "user",
          "type": "address",
          "internalType": "address"
        }
      ],
      "outputs": [],
      "stateMutability": "nonpayable"
    },
    {
      "type": "function",
      "name": "memberIndex",
      "inputs": [
        {
          "name": "",
          "type": "address",
          "internalType": "address"
        }
      ],
      "outputs": [
        {
          "name": "",
          "type": "uint256",
          "internalType": "uint256"
        }
      ],
      "stateMutability": "view"
    },
    {
      "type": "function",
      "name": "members",
      "inputs": [
        {
          "name": "",
          "type": "uint256",
          "internalType": "uint256"
        }
      ],
      "outputs": [
        {
          "name": "wallet",
          "type": "address",
          "internalType": "address"
        },
        {
          "name": "hasJoined",
          "type": "bool",
          "internalType": "bool"
        },
        {
          "name": "hasContributed",
          "type": "bool",
          "internalType": "bool"
        },
        {
          "name": "hasBid",
          "type": "bool",
          "internalType": "bool"
        },
        {
          "name": "bidAmount",
          "type": "uint256",
          "internalType": "uint256"
        },
        {
          "name": "isWinner",
          "type": "bool",
          "internalType": "bool"
        },
        {
          "name": "canParticipate",
          "type": "bool",
          "internalType": "bool"
        },
        {
          "name": "joinTime",
          "type": "uint256",
          "internalType": "uint256"
        },
        {
          "name": "contributionCount",
          "type": "uint256",
          "internalType": "uint256"
        }
      ],
      "stateMutability": "view"
    },
    {
      "type": "function",
      "name": "paymentToken",
      "inputs": [],
      "outputs": [
        {
          "name": "",
          "type": "address",
          "internalType": "contract IERC20"
        }
      ],
      "stateMutability": "view"
    },
    {
      "type": "function",
      "name": "performUpkeep",
      "inputs": [
        {
          "name": "performData",
          "type": "bytes",
          "internalType": "bytes"
        }
      ],
      "outputs": [],
      "stateMutability": "nonpayable"
    },
    {
      "type": "function",
      "name": "selectWinner",
      "inputs": [],
      "outputs": [
        {
          "name": "",
          "type": "address",
          "internalType": "address"
        }
      ],
      "stateMutability": "nonpayable"
    },
    {
      "type": "function",
      "name": "startChitFund",
      "inputs": [],
      "outputs": [],
      "stateMutability": "nonpayable"
    },
    {
      "type": "function",
      "name": "startNextCycle",
      "inputs": [],
      "outputs": [],
      "stateMutability": "nonpayable"
    },
    {
      "type": "function",
      "name": "submitBid",
      "inputs": [
        {
          "name": "_bidPercentage",
          "type": "uint256",
          "internalType": "uint256"
        }
      ],
      "outputs": [],
      "stateMutability": "nonpayable"
    },
    {
      "type": "function",
      "name": "totalMembers",
      "inputs": [],
      "outputs": [
        {
          "name": "",
          "type": "uint256",
          "internalType": "uint256"
        }
      ],
      "stateMutability": "view"
    },
    {
      "type": "event",
      "name": "AutomationTriggered",
      "inputs": [
        {
          "name": "timestamp",
          "type": "uint256",
          "indexed": false,
          "internalType": "uint256"
        },
        {
          "name": "action",
          "type": "string",
          "indexed": false,
          "internalType": "string"
        }
      ],
      "anonymous": false
    },
    {
      "type": "event",
      "name": "BidSubmitted",
      "inputs": [
        {
          "name": "member",
          "type": "address",
          "indexed": true,
          "internalType": "address"
        },
        {
          "name": "bidAmount",
          "type": "uint256",
          "indexed": false,
          "internalType": "uint256"
        },
        {
          "name": "cycle",
          "type": "uint256",
          "indexed": false,
          "internalType": "uint256"
        }
      ],
      "anonymous": false
    },
    {
      "type": "event",
      "name": "ChitFundCompleted",
      "inputs": [
        {
          "name": "totalCycles",
          "type": "uint256",
          "indexed": false,
          "internalType": "uint256"
        }
      ],
      "anonymous": false
    },
    {
      "type": "event",
      "name": "ContributionMade",
      "inputs": [
        {
          "name": "member",
          "type": "address",
          "indexed": true,
          "internalType": "address"
        },
        {
          "name": "amount",
          "type": "uint256",
          "indexed": false,
          "internalType": "uint256"
        },
        {
          "name": "cycle",
          "type": "uint256",
          "indexed": false,
          "internalType": "uint256"
        }
      ],
      "anonymous": false
    },
    {
      "type": "event",
      "name": "CycleCompleted",
      "inputs": [
        {
          "name": "cycleNumber",
          "type": "uint256",
          "indexed": true,
          "internalType": "uint256"
        },
        {
          "name": "winner",
          "type": "address",
          "indexed": false,
          "internalType": "address"
        }
      ],
      "anonymous": false
    },
    {
      "type": "event",
      "name": "FundsDistributed",
      "inputs": [
        {
          "name": "winner",
          "type": "address",
          "indexed": true,
          "internalType": "address"
        },
        {
          "name": "amount",
          "type": "uint256",
          "indexed": false,
          "internalType": "uint256"
        },
        {
          "name": "cycle",
          "type": "uint256",
          "indexed": false,
          "internalType": "uint256"
        }
      ],
      "anonymous": false
    },
    {
      "type": "event",
      "name": "MemberJoined",
      "inputs": [
        {
          "name": "member",
          "type": "address",
          "indexed": true,
          "internalType": "address"
        },
        {
          "name": "timestamp",
          "type": "uint256",
          "indexed": false,
          "internalType": "uint256"
        }
      ],
      "anonymous": false
    },
    {
      "type": "event",
      "name": "WinnerSelected",
      "inputs": [
        {
          "name": "winner",
          "type": "address",
          "indexed": true,
          "internalType": "address"
        },
        {
          "name": "payout",
          "type": "uint256",
          "indexed": false,
          "internalType": "uint256"
        },
        {
          "name": "cycle",
          "type": "uint256",
          "indexed": false,
          "internalType": "uint256"
        }
      ],
      "anonymous": false
    }
  ],
  "bytecode": {
    "object": "0x60406080815234620002df57620024f5803803806200001e81620002f8565b928339810190608081830312620002df5780516001600160401b039290838111620002df57820190601f90808284011215620002df57825193858511620001bd57602094601f19946200007785830187168801620002f8565b93828552878383010111620002df5786905f5b838110620002e35750505f91840101528085015187820151606090920151936001600160a01b03851693848603620002df57805191898311620001bd575f54916001988984811c94168015620002d4575b8b851014620002c057838386951162000269575b508a9284116001146200020857505f92620001fc575b50505f19600383901b1c191690861b175f555b8455600255620001d1575060ff1960035416176003555b8251610120810192831181841017620001bd575f610100928194865281835282015282848201528260608201528260808201528260a08201528260c08201528260e082015201525f6007555f60085560018060a01b0319600954166009555f600a5560ff1980600b5416600b555f600c555f600d555f600e55600f5416600f55516121d690816200031f8239f35b634e487b7160e01b5f52604160045260245ffd5b600380546001600160a81b03191660089290921b610100600160a81b0316919091179055506200012f565b015190505f8062000105565b899492919216915f80528a5f20925f5b8c82821062000252575050841162000239575b505050811b015f5562000118565b01515f1960f88460031b161c191690555f80806200022b565b8385015186558c9790950194938401930162000218565b90919293505f80528a5f208480870160051c8201928d8810620002b6575b9187968d92969594930160051c01915b828110620002a7575050620000ef565b5f81558796508c910162000297565b9250819262000287565b634e487b7160e01b5f52602260045260245ffd5b93607f1693620000db565b5f80fd5b8181018301518682018401528892016200008a565b6040519190601f01601f191682016001600160401b03811183821017620001bd5760405256fe608060409080825260049081361015610030575b5050503615610020575f80fd5b61002e60ff60035416611fd8565b005b5f9060e08235811c918262a0190e146119a35750816320edb6101461196c5781633013ce291461193f57816333a99e04146116235781633a6a4d2e146113e55781633d2b7493146113be5781633dd3527914611383578163450e2ed3146112735781634585e33b14610f1f57816348498ee014610ef25781634b261dad14610e835781634be957da14610e665781635daf08ca14610dc55781635fa0b65f14610da65781636e04ff0d14610c0757816374bdda1514610a1357816376e92559146109f45781637f79496c146109bf5781639af4f541146106a95781639ce1413b146108a65781639eab5253146106e9578163a230c524146106a9578163bab2f55214610632578163be26ed7f1461052a57508063cd421fbf1461050c578063d2e6df8f146104f0578063d7bb99ba14610269578063d9a672201461024d578063dde8535f14610201578063ea0e35b1146101e5578063f05e5a1a146101bd5763f5ed3c350361001357346101ba57806003193601126101ba57505460075482519182526020820152f35b80fd5b5082346101e157816003193601126101e15760209060ff6003541690519015158152f35b5080fd5b5082346101e157816003193601126101e15760209051600a8152f35b509190346102495760203660031901126102495735916001600160a01b03831683036101ba5750610233606092612089565b9192908151931515845215156020840152820152f35b8280fd5b5082346101e157816003193601126101e1576020905160038152f35b5082816003193601126101e1573382526020906006825260ff610290818386205416611f23565b600354818160a81c16806104e5575b6102a890611f5e565b600c5442116104a2573385526005845282852054916102d88160026102cc86611a0e565b50015460081c16611f97565b806102e284611a0e565b505460a81c1661046957859185918116156103cd5750505060015434036103935761032985915b61031281611a0e565b50805460ff60a81b1916600160a81b179055611a0e565b50016103358154611db9565b9055600154916008548381018091116103805760085560075482519384529083015233917f5dc1fe5ab986a852c4eda8e8bb94247d13307065c593fb83f1a09be2736793829190a280f35b601186634e487b7160e01b5f525260245ffd5b815162461bcd60e51b81528086018490526014602482015273125b98dbdc9c9958dd0811551208185b5bdd5b9d60621b6044820152606490fd5b6103d73415611fd8565b60015485516323b872dd60e01b8152338a8201523060248201526044810191909152928391606491839160081c6001600160a01b03165af190811561045f579161042d6103299288948891610432575b5061202f565b610309565b6104529150873d8911610458575b61044a8183611afa565b810190612017565b89610427565b503d610440565b83513d87823e3d90fd5b835162461bcd60e51b81528088018690526013602482015272105b1c9958591e4818dbdb9d1c9a589d5d1959606a1b6044820152606490fd5b825162461bcd60e51b8152808701859052601960248201527f436f6e747269627574696f6e20706572696f6420656e646564000000000000006044820152606490fd5b50600b54821661029f565b5082346101e157816003193601126101e15760209051601e8152f35b5082346101e157816003193601126101e1576020905162093a808152f35b84915034610249578260031936011261024957916101209282519161054e83611ac1565b80835280602084015280848401528060608401528060808401528060a08401528060c084015280828401526101008093015282519061058c82611ac1565b60075493848352600854906020840191825260018060a01b03806009541691808601928352600a546060870190815260ff600b541691608088019215158352600c549360a08901948552600d549560c08a01968752600e5497898b019889528b60ff600f54169b019a15158b5283519c8d525160208d01525116908a015251606089015251151560808801525160a08701525160c0860152519084015251151590820152f35b849150346102495782600319360112610249576101209250600754916008549160018060a01b0360095416600a5460ff600b5416600c5491600d5493600e549660ff600f54169881519a8b5260208b015289015260608801521515608087015260a086015260c08501528301521515610100820152f35b8285853461024957602036600319011261024957356001600160a01b0381169081900361024957818360ff92602095526006855220541690519015158152f35b848484346101ba57806003193601126101ba57815467ffffffffffffffff81116108935783519060209060056107238383831b0185611afa565b81845282840180968087527f8a35acfbc15ff81a39ae7d344fd709f28e8600b4aa8c65c6b64bfe7fe36bd19b9087925b8a8c8786106107ff575095505050505050519481860192828752518093528086019493905b8382106107855786860387f35b845180516001600160a01b0316875280840151151587850152808201511515878301526060808201511515908801526080808201519088015260a08082015115159088015260c080820151151590880152888101518988015261010090810151908701526101209095019493820193600190910190610778565b9760019282829b9c9a8994519161081583611ac1565b885490878060a01b038216845260ff809260a0928282851c16151589880152828260a81c1615159087015260b01c1615156060850152878a0154608085015260028a01549082821615159085015260081c16151560c08301526003880154908201528587015461010082015281520193019301929197969597610753565b506041602492634e487b7160e01b835252fd5b838584346101ba57806003193601126101ba5781519181825492600184811c918186169586156109b5575b60209687851081146109a2578899509688969785829a5291825f1461097b575050600114610920575b50505061091c929161090d910385611afa565b51928284938452830190611a5b565b0390f35b91908693508280527f290decd9548b62a8d60345a988386fc84ba6bc95484008f6362f93160ef3e5635b828410610963575050508201018161090d61091c6108fa565b8054848a01860152889550879490930192810161094a565b60ff19168782015293151560051b8601909301935084925061090d915061091c90506108fa565b634e487b7160e01b835260228a52602483fd5b92607f16926108d1565b8285346101e157816003193601126101e1576060906008549060075460ff600b54169082519384526020840152151590820152f35b8285346101e157816003193601126101e1576020906002549051908152f35b5050913461024957602080600319360112610c03578235923385526006825260ff610a42818588205416611f23565b8060035460a81c1680610bf8575b610a5990611f5e565b600d5442111580610bed575b15610bb357601e8511610b825733865260058352838620549181610a8884611a0e565b505460a81c1615610b475781610a9d84611a0e565b505460b01c16610b1657506001610b0183610ae1889460026102cc7f84bee513033536a8de8a8260e2674a4a3eebd61ddce74615fdeca8a1499f5efe9a9998611a0e565b610aea81611a0e565b50805460ff60b01b191660b085901b179055611a0e565b5001556007549082519485528401523392a280f35b845162461bcd60e51b8152908101849052600b60248201526a105b1c9958591e48189a5960aa1b6044820152606490fd5b845162461bcd60e51b81529081018490526015602482015274135d5cdd0818dbdb9d1c9a589d5d1948199a5c9cdd605a1b6044820152606490fd5b50915162461bcd60e51b815291820152600c60248201526b084d2c840e8dede40d0d2ced60a31b6044820152606490fd5b50915162461bcd60e51b8152918201526015602482015274139bdd081a5b88189a59191a5b99c81c195c9a5bd9605a1b6044820152606490fd5b50600c544211610a65565b50600b548116610a50565b8380fd5b8483346101ba57610c17366119c0565b5050506060600d5442119081610d92575b81610d82575b6009546001600160a01b0316151580610d75575b60ff600f54169081610d67575b838015610d5e575b8415610d55575b15610cc15750505061091c8251602080820152610caa81610c9c868201604090600d81526c29a2a622a1aa2faba4a72722a960991b60208201520190565b03601f198101835282611afa565b835193849315158452806020850152830190611a5b565b15610d0657505061091c8251602080820152610d0181610c9c868201604090601081526f444953545249425554455f46554e445360801b60208201520190565b610caa565b610d14575b61091c90610caa565b5061091c8251602080820152610d4e81610c9c868201604090601081526f53544152545f4e4558545f4359434c4560801b60208201520190565b9050610d0b565b93508193610c5e565b93508093610c57565b600754600254119150610c4f565b5060ff600f541615610c42565b9050610d8c6120f0565b90610c2e565b6009546001600160a01b0316159150610c28565b8285346101e157816003193601126101e1576020906001549051908152f35b8484849234610c03576020366003190112610c035781359382548510156101ba5750610df361012094611a0e565b509060ff82549360018401548260028601549260038701549601549688519860018060a01b0382168a52828260a01c16151560208b0152828260a81c161515908a015260b01c16151560608801526080870152818116151560a087015260081c16151560c0850152830152610100820152f35b82346101ba57806003193601126101ba57610e8033611b5a565b80f35b50509134610249578260031936011261024957610ea860ff60035460a81c1615611b1c565b6003825410610eba5782610e80611d9e565b906020606492519162461bcd60e51b835282015260126024820152714e6f7420656e6f756768206d656d6265727360701b6044820152fd5b8284346101e15760203660031901126101e157356001600160a01b03811681036101e157610e8090611b5a565b5050913461024957610f30366119c0565b81939101602093848183031261126b5780359067ffffffffffffffff821161126f570181601f8201121561126b5785813591610f6b8361206d565b92610f7887519485611afa565b808452878401948882840101116102495780888093018637830101527f58ec6e5d84dd7553c5188a153dacbbd51db3356d2e6ec1d2aa78a64774d79d95815183206c29a2a622a1aa2faba4a72722a960991b878751610fd681611ade565b600d815201520361108e5750508282518092630cea678160e21b82528187305af180156110845761104a575b505f80516020612181833981519152916110448280519384934285528401528201604090600d81526c29a2a622a1aa2faba4a72722a960991b60208201520190565b0390a180f35b8281813d831161107d575b61105f8183611afa565b81010312610c0357516001600160a01b03811603610249575f611002565b503d611055565b82513d86823e3d90fd5b7f22fa86b9d48e915afe30bcf6cb2841bd666364d355b1004c17b9c560447fb995819695965183206f444953545249425554455f46554e445360801b8887516110d681611ade565b6010815201520361117157505091809392303b156101e1578183518092631d35269760e11b82528183305af1801561116757611153575b50505f80516020612181833981519152916110448280519384934285528401528201604090601081526f444953545249425554455f46554e445360801b60208201520190565b61115c90611a99565b61024957825f61110d565b83513d84823e3d90fd5b907f7619a5c26cddf5187407b33b0f51062bce9b431e6d5991ca71606b9ea93c646b915190206f53544152545f4e4558545f4359434c4560801b8685516111b781611ade565b601081520152146111ca575b5050905080f35b303b1561024957828251809263450e2ed360e01b82528183305af1801561125f57611241575b505f8051602061218183398151915291926112368280519384934285528401528201604090601081526f53544152545f4e4558545f4359434c4560801b60208201520190565b0390a1805f806111c3565b916112595f8051602061218183398151915293611a99565b916111f0565b505051903d90823e3d90fd5b8580fd5b8680fd5b8285853461024957826003193601126102495760ff9081600f5416156113485760075490600291825411928315936112f2575b5050505f146112e95760207fcb3494df98fe4c1d5c6474f3329e36c3b46263118674110984f51a6d359ffa849160ff19600b5416600b556007549051908152a180f35b50610e80611ddb565b905485935091835b83811061130e5750505050158380806112a6565b828261131983611a0e565b50015460081c16611333575b61132e90611db9565b6112fa565b9361134061132e91611db9565b949050611325565b606490602084519162461bcd60e51b83528201526015602482015274119d5b991cc81b9bdd08191a5cdd1c9a589d5d1959605a1b6044820152fd5b8285853461024957602036600319011261024957356001600160a01b0381169081900361024957828291602094526005845220549051908152f35b8285346101e157816003193601126101e15760209060ff60035460a81c1690519015158152f35b828585346102495782600319360112610249576009546001600160a01b039190821680156115eb57600f5460ff81166115a85760ff1916600117600f556003549060ff821615611512575050838080808560095416600a54905af13d1561150d573d6114508161206d565b9061145d86519283611afa565b81528560203d92013e5b156114d4575060207fd7d2b5a2975fc9caa8760168fbb45d0d1150bafec74649726d064c6465079f75915b60095416600a5493817f080babe757d4e5c7db3b7bd10606a7bf07a9857f660977ada6ca7a4d329376c8826007549781519081528887820152a251908152a280f35b606490602084519162461bcd60e51b83528201526013602482015272115512081d1c985b9cd9995c8819985a5b1959606a1b6044820152fd5b611467565b604484938760209496600a54978951988996879563a9059cbb60e01b8752860152602485015260081c165af190811561159b576115796020927fd7d2b5a2975fc9caa8760168fbb45d0d1150bafec74649726d064c6465079f7594879161157e575061202f565b611492565b6115959150843d81116104585761044a8183611afa565b87610427565b50505051903d90823e3d90fd5b845162461bcd60e51b8152602081850152601960248201527f46756e647320616c7265616479206469737472696275746564000000000000006044820152606490fd5b835162461bcd60e51b81526020818401526012602482015271139bc81dda5b9b995c881cd95b1958dd195960721b6044820152606490fd5b505082346101e157816003193601126101e157600d54421115611909576009546001600160a01b038082166118c65761165a6120f0565b1561188357839184918592868854905b8181106117f5575082821615611780575b5016948515611748576008549380850290858204148515171561173557606490048403938411611722576001600160a01b031982168617600955600a84905560208686817f866efae43947560fe9d0de9013bc323d5718730d5c1543261b48a7bcb0717b93828960026117048b826116f282611a0e565b5001805460ff19166001179055611a0e565b5001805461ff0019169055600754825191825287820152a251908152f35b634e487b7160e01b815260118752602490fd5b634e487b7160e01b825260118852602482fd5b845162461bcd60e51b8152602081890152601260248201527127379032b634b3b4b13632903bb4b73732b960711b6044820152606490fd5b875b818110611790575b5061167b565b600261179b82611a0e565b50015460081c60ff90811690816117de575b506117c0576117bb90611db9565b611782565b955050508092506117d084611a0e565b50541692918593888061178a565b90506117e982611a0e565b505460a81c168b6117ad565b6117fe81611a0e565b5060ff80915460b01c169081611869575b5080611853575b611829575b61182490611db9565b61166a565b61183b91965080955060019250611a0e565b500154938161184985611a0e565b505416908461181b565b5086600161186083611a0e565b50015411611816565b9050600261187683611a0e565b50015460081c168b61180f565b825162461bcd60e51b8152602081870152601e60248201527f4e6f7420616c6c20636f6e747269627574696f6e7320726563656976656400006044820152606490fd5b825162461bcd60e51b8152602081870152601760248201527f57696e6e657220616c72656164792073656c65637465640000000000000000006044820152606490fd5b5162461bcd60e51b81526020818401526011602482015270109a59191a5b99c81b9bdd08195b991959607a1b6044820152606490fd5b8285346101e157816003193601126101e157600354905160089190911c6001600160a01b03168152602090f35b8285346101e157816003193601126101e15760209060ff600b5416159081611997575b519015158152f35b6007541515915061198f565b8390346101e157816003193601126101e157806203f48060209252f35b906020600319830112611a0a5760043567ffffffffffffffff92838211611a0a5780602383011215611a0a578160040135938411611a0a5760248483010111611a0a576024019190565b5f80fd5b600454811015611a475760059060045f52027f8a35acfbc15ff81a39ae7d344fd709f28e8600b4aa8c65c6b64bfe7fe36bd19b01905f90565b634e487b7160e01b5f52603260045260245ffd5b91908251928382525f5b848110611a85575050825f602080949584010152601f8019910116010190565b602081830181015184830182015201611a65565b67ffffffffffffffff8111611aad57604052565b634e487b7160e01b5f52604160045260245ffd5b610120810190811067ffffffffffffffff821117611aad57604052565b6040810190811067ffffffffffffffff821117611aad57604052565b90601f8019910116810190811067ffffffffffffffff821117611aad57604052565b15611b2357565b60405162461bcd60e51b815260206004820152600f60248201526e105b1c9958591e481cdd185c9d1959608a1b6044820152606490fd5b611b6c60ff60035460a81c1615611b1c565b600490815490600254821015611d6b5760018060a01b03809116915f8381526020926006845260409260ff8484205416611d3557835191611bac83611ac1565b868352858301600181528584018581526060850191868352608086019087825260a087019388855260c08801936001855260e08901964288526101008a01988b8a5268010000000000000000811015611d21578f90611c1091600182019055611a0e565b9a909a611d0e57518a549451925193516001600160b81b031990951691161790151560a01b60ff60a01b161790151560a81b60ff60a81b161790151560b01b60ff60b01b161786555160018601559051600285018054925161ffff1990931691151560ff169190911791151560081b61ff0016919091179055516003830155519086015584545f198101908111611cfb57848252600584528282205560068352819020805460ff19166001179055514281527f7f3b9effe05cfb4f31f854004de03199fd03fe56bf38a48b2aa9a9f4402d6e239190a25460025414611cf157565b611cf9611d9e565b565b634e487b7160e01b825260118652602482fd5b8f8c80602492634e487b7160e01b825252fd5b8f8c6041602492634e487b7160e01b835252fd5b835162461bcd60e51b8152808801869052601060248201526f20b63932b0b23c90309036b2b6b132b960811b6044820152606490fd5b60405162461bcd60e51b8152602081850152600c60248201526b119d5b99081a5cc8199d5b1b60a21b6044820152606490fd5b6003805460ff60a81b1916600160a81b179055611cf9611ddb565b5f198114611dc75760010190565b634e487b7160e01b5f52601160045260245ffd5b6007546001808201809211611dc75762093a80420191824211611dc757620d2f00420192838111611dc75761010091604051611e1681611ac1565b8181525f9381856020819401528260408201528260608201528660808201528460a08201528760c08201524260e082015201526007556008938285556bffffffffffffffffffffffff60a01b6009541660095582600a5560ff19918483600b541617600b55600c55600d5542600e55600f5416600f558181905b611e9b575b50505050565b60048054821015611f1d578183611ecc9260ff6002611eba8997611a0e565b500154891c16611ed2575b5050611db9565b90611e90565b611edb83611a0e565b50805460ff60a81b19169055611ef083611a0e565b50805460ff60b01b191690558185611f0785611a0e565b500155611f1383611a0e565b500155835f611ec5565b50611e95565b15611f2a57565b60405162461bcd60e51b815260206004820152600c60248201526b2737ba10309036b2b6b132b960a11b6044820152606490fd5b15611f6557565b60405162461bcd60e51b815260206004820152600a6024820152694e6f742061637469766560b01b6044820152606490fd5b15611f9e57565b60405162461bcd60e51b815260206004820152601260248201527143616e6e6f7420706172746963697061746560701b6044820152606490fd5b15611fdf57565b60405162461bcd60e51b815260206004820152601060248201526f115512081b9bdd081858d8d95c1d195960821b6044820152606490fd5b90816020910312611a0a57518015158103611a0a5790565b1561203657565b60405162461bcd60e51b815260206004820152600f60248201526e151c985b9cd9995c8819985a5b1959608a1b6044820152606490fd5b67ffffffffffffffff8111611aad57601f01601f191660200190565b6001600160a01b03165f9081526006602052604081205460ff16156120ea57604090600560205220549060ff6120be83611a0e565b505460a81c169060016120e160ff6120d586611a0e565b505460b01c1694611a0e565b50015491929190565b80918190565b5f808081600454905b81811061211457505014908161210d575090565b9050151590565b90919250600261212382611a0e565b50015460ff9060081c8116612146575b5061213d90611db9565b908392916120f9565b9361215090611db9565b9361215a82611a0e565b505460a81c1661216b575b5f612133565b9161217861213d91611db9565b92905061216556fe56ac93fd47f15da210aa3b94cd30ab893c2ff7b69d5bf1ef2325fcb4d9bca73fa264697066735822122010b81d9039e17c175edec66c4453f826d4ca254e4346109c044504c42a5b547f64736f6c63430008140033",
    "linkReferences": {}
  },
  "methodIdentifiers": {
    "BIDDING_DURATION()": "00a0190e",
    "CYCLE_DURATION()": "cd421fbf",
    "MAX_BID_PERCENTAGE()": "d2e6df8f",
    "MAX_MEMBERS()": "ea0e35b1",
    "MIN_MEMBERS()": "d9a67220",
    "checkUpkeep(bytes)": "6e04ff0d",
    "contribute()": "d7bb99ba",
    "contributionAmount()": "5fa0b65f",
    "currentCycle()": "bab2f552",
    "distributeFunds()": "3a6a4d2e",
    "fundName()": "9ce1413b",
    "getCurrentCycle()": "be26ed7f",
    "getFundStats()": "f5ed3c35",
    "getMemberStatus(address)": "dde8535f",
    "getMembers()": "9eab5253",
    "getPoolStatus()": "7f79496c",
    "isChitFundComplete()": "20edb610",
    "isChitFundStarted()": "3d2b7493",
    "isEthBased()": "f05e5a1a",
    "isMember(address)": "a230c524",
    "isMemberAddress(address)": "9af4f541",
    "joinFund()": "4be957da",
    "joinFundFor(address)": "48498ee0",
    "memberIndex(address)": "3dd35279",
    "members(uint256)": "5daf08ca",
    "paymentToken()": "3013ce29",
    "performUpkeep(bytes)": "4585e33b",
    "selectWinner()": "33a99e04",
    "startChitFund()": "4b261dad",
    "startNextCycle()": "450e2ed3",
    "submitBid(uint256)": "74bdda15",
    "totalMembers()": "76e92559"
  },
  "id": 29
}